{
  "_format": "hh-sol-artifact-1",
  "contractName": "ProductTracker",
  "sourceName": "contracts/NFTTracker.sol",
  "abi": [
    {
      "inputs": [],
      "stateMutability": "nonpayable",
      "type": "constructor"
    },
    {
      "inputs": [
        {
          "internalType": "address",
          "name": "sender",
          "type": "address"
        },
        {
          "internalType": "uint256",
          "name": "tokenId",
          "type": "uint256"
        },
        {
          "internalType": "address",
          "name": "owner",
          "type": "address"
        }
      ],
      "name": "ERC721IncorrectOwner",
      "type": "error"
    },
    {
      "inputs": [
        {
          "internalType": "address",
          "name": "operator",
          "type": "address"
        },
        {
          "internalType": "uint256",
          "name": "tokenId",
          "type": "uint256"
        }
      ],
      "name": "ERC721InsufficientApproval",
      "type": "error"
    },
    {
      "inputs": [
        {
          "internalType": "address",
          "name": "approver",
          "type": "address"
        }
      ],
      "name": "ERC721InvalidApprover",
      "type": "error"
    },
    {
      "inputs": [
        {
          "internalType": "address",
          "name": "operator",
          "type": "address"
        }
      ],
      "name": "ERC721InvalidOperator",
      "type": "error"
    },
    {
      "inputs": [
        {
          "internalType": "address",
          "name": "owner",
          "type": "address"
        }
      ],
      "name": "ERC721InvalidOwner",
      "type": "error"
    },
    {
      "inputs": [
        {
          "internalType": "address",
          "name": "receiver",
          "type": "address"
        }
      ],
      "name": "ERC721InvalidReceiver",
      "type": "error"
    },
    {
      "inputs": [
        {
          "internalType": "address",
          "name": "sender",
          "type": "address"
        }
      ],
      "name": "ERC721InvalidSender",
      "type": "error"
    },
    {
      "inputs": [
        {
          "internalType": "uint256",
          "name": "tokenId",
          "type": "uint256"
        }
      ],
      "name": "ERC721NonexistentToken",
      "type": "error"
    },
    {
      "anonymous": false,
      "inputs": [
        {
          "indexed": true,
          "internalType": "address",
          "name": "owner",
          "type": "address"
        },
        {
          "indexed": true,
          "internalType": "address",
          "name": "approved",
          "type": "address"
        },
        {
          "indexed": true,
          "internalType": "uint256",
          "name": "tokenId",
          "type": "uint256"
        }
      ],
      "name": "Approval",
      "type": "event"
    },
    {
      "anonymous": false,
      "inputs": [
        {
          "indexed": true,
          "internalType": "address",
          "name": "owner",
          "type": "address"
        },
        {
          "indexed": true,
          "internalType": "address",
          "name": "operator",
          "type": "address"
        },
        {
          "indexed": false,
          "internalType": "bool",
          "name": "approved",
          "type": "bool"
        }
      ],
      "name": "ApprovalForAll",
      "type": "event"
    },
    {
      "anonymous": false,
      "inputs": [
        {
          "indexed": false,
          "internalType": "address",
          "name": "minter",
          "type": "address"
        },
        {
          "indexed": false,
          "internalType": "uint256",
          "name": "tokenId",
          "type": "uint256"
        }
      ],
      "name": "Mint",
      "type": "event"
    },
    {
      "anonymous": false,
      "inputs": [
        {
          "indexed": true,
          "internalType": "address",
          "name": "from",
          "type": "address"
        },
        {
          "indexed": true,
          "internalType": "address",
          "name": "to",
          "type": "address"
        },
        {
          "indexed": true,
          "internalType": "uint256",
          "name": "tokenId",
          "type": "uint256"
        }
      ],
      "name": "Transfer",
      "type": "event"
    },
    {
      "anonymous": false,
      "inputs": [
        {
          "indexed": false,
          "internalType": "address",
          "name": "minter",
          "type": "address"
        },
        {
          "indexed": false,
          "internalType": "string",
          "name": "newURI",
          "type": "string"
        }
      ],
      "name": "Updated",
      "type": "event"
    },
    {
      "inputs": [
        {
          "internalType": "address",
          "name": "to",
          "type": "address"
        },
        {
          "internalType": "uint256",
          "name": "tokenId",
          "type": "uint256"
        }
      ],
      "name": "approve",
      "outputs": [],
      "stateMutability": "nonpayable",
      "type": "function"
    },
    {
      "inputs": [
        {
          "internalType": "address",
          "name": "owner",
          "type": "address"
        }
      ],
      "name": "balanceOf",
      "outputs": [
        {
          "internalType": "uint256",
          "name": "",
          "type": "uint256"
        }
      ],
      "stateMutability": "view",
      "type": "function"
    },
    {
      "inputs": [
        {
          "internalType": "uint256",
          "name": "tokenId",
          "type": "uint256"
        }
      ],
      "name": "getAnimalDetails",
      "outputs": [
        {
          "components": [
            {
              "internalType": "uint256",
              "name": "id",
              "type": "uint256"
            },
            {
              "internalType": "string",
              "name": "animalType",
              "type": "string"
            },
            {
              "internalType": "string",
              "name": "breed",
              "type": "string"
            },
            {
              "internalType": "uint256",
              "name": "herdNumber",
              "type": "uint256"
            },
            {
              "components": [
                {
                  "internalType": "address",
                  "name": "participant",
                  "type": "address"
                },
                {
                  "internalType": "string",
                  "name": "dataURI",
                  "type": "string"
                },
                {
                  "internalType": "uint256",
                  "name": "timestamp",
                  "type": "uint256"
                }
              ],
              "internalType": "struct ProductTracker.Event[]",
              "name": "trace",
              "type": "tuple[]"
            },
            {
              "internalType": "uint256[]",
              "name": "intervals",
              "type": "uint256[]"
            }
          ],
          "internalType": "struct ProductTracker.NFT",
          "name": "",
          "type": "tuple"
        }
      ],
      "stateMutability": "view",
      "type": "function"
    },
    {
      "inputs": [
        {
          "internalType": "uint256",
          "name": "tokenId",
          "type": "uint256"
        }
      ],
      "name": "getApproved",
      "outputs": [
        {
          "internalType": "address",
          "name": "",
          "type": "address"
        }
      ],
      "stateMutability": "view",
      "type": "function"
    },
    {
      "inputs": [
        {
          "internalType": "address",
          "name": "owner",
          "type": "address"
        },
        {
          "internalType": "address",
          "name": "operator",
          "type": "address"
        }
      ],
      "name": "isApprovedForAll",
      "outputs": [
        {
          "internalType": "bool",
          "name": "",
          "type": "bool"
        }
      ],
      "stateMutability": "view",
      "type": "function"
    },
    {
      "inputs": [
        {
          "internalType": "uint256",
          "name": "tokenId",
          "type": "uint256"
        },
        {
          "internalType": "string",
          "name": "_type",
          "type": "string"
        },
        {
          "internalType": "string",
          "name": "_breed",
          "type": "string"
        },
        {
          "internalType": "uint256",
          "name": "_herdNum",
          "type": "uint256"
        }
      ],
      "name": "mintToken",
      "outputs": [
        {
          "internalType": "uint256",
          "name": "",
          "type": "uint256"
        }
      ],
      "stateMutability": "nonpayable",
      "type": "function"
    },
    {
      "inputs": [],
      "name": "name",
      "outputs": [
        {
          "internalType": "string",
          "name": "",
          "type": "string"
        }
      ],
      "stateMutability": "view",
      "type": "function"
    },
    {
      "inputs": [],
      "name": "owner",
      "outputs": [
        {
          "internalType": "address",
          "name": "",
          "type": "address"
        }
      ],
      "stateMutability": "view",
      "type": "function"
    },
    {
      "inputs": [
        {
          "internalType": "uint256",
          "name": "tokenId",
          "type": "uint256"
        }
      ],
      "name": "ownerOf",
      "outputs": [
        {
          "internalType": "address",
          "name": "",
          "type": "address"
        }
      ],
      "stateMutability": "view",
      "type": "function"
    },
    {
      "inputs": [
        {
          "internalType": "address",
          "name": "from",
          "type": "address"
        },
        {
          "internalType": "address",
          "name": "to",
          "type": "address"
        },
        {
          "internalType": "uint256",
          "name": "tokenId",
          "type": "uint256"
        }
      ],
      "name": "safeTransferFrom",
      "outputs": [],
      "stateMutability": "nonpayable",
      "type": "function"
    },
    {
      "inputs": [
        {
          "internalType": "address",
          "name": "from",
          "type": "address"
        },
        {
          "internalType": "address",
          "name": "to",
          "type": "address"
        },
        {
          "internalType": "uint256",
          "name": "tokenId",
          "type": "uint256"
        },
        {
          "internalType": "bytes",
          "name": "data",
          "type": "bytes"
        }
      ],
      "name": "safeTransferFrom",
      "outputs": [],
      "stateMutability": "nonpayable",
      "type": "function"
    },
    {
      "inputs": [
        {
          "internalType": "address",
          "name": "operator",
          "type": "address"
        },
        {
          "internalType": "bool",
          "name": "approved",
          "type": "bool"
        }
      ],
      "name": "setApprovalForAll",
      "outputs": [],
      "stateMutability": "nonpayable",
      "type": "function"
    },
    {
      "inputs": [
        {
          "internalType": "bytes4",
          "name": "interfaceId",
          "type": "bytes4"
        }
      ],
      "name": "supportsInterface",
      "outputs": [
        {
          "internalType": "bool",
          "name": "",
          "type": "bool"
        }
      ],
      "stateMutability": "view",
      "type": "function"
    },
    {
      "inputs": [],
      "name": "symbol",
      "outputs": [
        {
          "internalType": "string",
          "name": "",
          "type": "string"
        }
      ],
      "stateMutability": "view",
      "type": "function"
    },
    {
      "inputs": [
        {
          "internalType": "uint256",
          "name": "tokenId",
          "type": "uint256"
        }
      ],
      "name": "tokenURI",
      "outputs": [
        {
          "internalType": "string",
          "name": "",
          "type": "string"
        }
      ],
      "stateMutability": "view",
      "type": "function"
    },
    {
      "inputs": [
        {
          "internalType": "address",
          "name": "from",
          "type": "address"
        },
        {
          "internalType": "address",
          "name": "to",
          "type": "address"
        },
        {
          "internalType": "uint256",
          "name": "tokenId",
          "type": "uint256"
        }
      ],
      "name": "transferFrom",
      "outputs": [],
      "stateMutability": "nonpayable",
      "type": "function"
    },
    {
      "inputs": [
        {
          "internalType": "uint256",
          "name": "tokenId",
          "type": "uint256"
        },
        {
          "internalType": "string",
          "name": "dataURI",
          "type": "string"
        }
      ],
      "name": "updateTrace",
      "outputs": [],
      "stateMutability": "nonpayable",
      "type": "function"
    }
  ],
  "bytecode": "0x60806040523480156200001157600080fd5b506040518060400160405280600a81526020017f48616c616c5472616365000000000000000000000000000000000000000000008152506040518060400160405280600681526020017f485472616365000000000000000000000000000000000000000000000000000081525081600090816200008f919062000365565b508060019081620000a1919062000365565b50505033600660006101000a81548173ffffffffffffffffffffffffffffffffffffffff021916908373ffffffffffffffffffffffffffffffffffffffff1602179055506200044c565b600081519050919050565b7f4e487b7100000000000000000000000000000000000000000000000000000000600052604160045260246000fd5b7f4e487b7100000000000000000000000000000000000000000000000000000000600052602260045260246000fd5b600060028204905060018216806200016d57607f821691505b60208210810362000183576200018262000125565b5b50919050565b60008190508160005260206000209050919050565b60006020601f8301049050919050565b600082821b905092915050565b600060088302620001ed7fffffffffffffffffffffffffffffffffffffffffffffffffffffffffffffffff82620001ae565b620001f98683620001ae565b95508019841693508086168417925050509392505050565b6000819050919050565b6000819050919050565b600062000246620002406200023a8462000211565b6200021b565b62000211565b9050919050565b6000819050919050565b620002628362000225565b6200027a62000271826200024d565b848454620001bb565b825550505050565b600090565b6200029162000282565b6200029e81848462000257565b505050565b5b81811015620002c657620002ba60008262000287565b600181019050620002a4565b5050565b601f8211156200031557620002df8162000189565b620002ea846200019e565b81016020851015620002fa578190505b6200031262000309856200019e565b830182620002a3565b50505b505050565b600082821c905092915050565b60006200033a600019846008026200031a565b1980831691505092915050565b600062000355838362000327565b9150826002028217905092915050565b6200037082620000eb565b67ffffffffffffffff8111156200038c576200038b620000f6565b5b62000398825462000154565b620003a5828285620002ca565b600060209050601f831160018114620003dd5760008415620003c8578287015190505b620003d4858262000347565b86555062000444565b601f198416620003ed8662000189565b60005b828110156200041757848901518255600182019150602085019450602081019050620003f0565b8683101562000437578489015162000433601f89168262000327565b8355505b6001600288020188555050505b505050505050565b612b4a806200045c6000396000f3fe608060405234801561001057600080fd5b506004361061010b5760003560e01c80638da5cb5b116100a2578063b88d4fde11610071578063b88d4fde146102ca578063c73de8a3146102e6578063c87b56dd14610316578063e985e9c514610346578063ea6c6bc9146103765761010b565b80638da5cb5b1461024257806392566a691461026057806395d89b4114610290578063a22cb465146102ae5761010b565b806323b872dd116100de57806323b872dd146101aa57806342842e0e146101c65780636352211e146101e257806370a08231146102125761010b565b806301ffc9a71461011057806306fdde0314610140578063081812fc1461015e578063095ea7b31461018e575b600080fd5b61012a60048036038101906101259190611c61565b610392565b6040516101379190611ca9565b60405180910390f35b610148610474565b6040516101559190611d54565b60405180910390f35b61017860048036038101906101739190611dac565b610506565b6040516101859190611e1a565b60405180910390f35b6101a860048036038101906101a39190611e61565b610522565b005b6101c460048036038101906101bf9190611ea1565b610538565b005b6101e060048036038101906101db9190611ea1565b61063a565b005b6101fc60048036038101906101f79190611dac565b61065a565b6040516102099190611e1a565b60405180910390f35b61022c60048036038101906102279190611ef4565b61066c565b6040516102399190611f30565b60405180910390f35b61024a610726565b6040516102579190611e1a565b60405180910390f35b61027a60048036038101906102759190612080565b61074c565b6040516102879190611f30565b60405180910390f35b610298610818565b6040516102a59190611d54565b60405180910390f35b6102c860048036038101906102c3919061214b565b6108aa565b005b6102e460048036038101906102df919061222c565b6108c0565b005b61030060048036038101906102fb9190611dac565b6108dd565b60405161030d9190612576565b60405180910390f35b610330600480360381019061032b9190611dac565b610beb565b60405161033d9190611d54565b60405180910390f35b610360600480360381019061035b9190612598565b610c54565b60405161036d9190611ca9565b60405180910390f35b610390600480360381019061038b91906125d8565b610ce8565b005b60007f80ac58cd000000000000000000000000000000000000000000000000000000007bffffffffffffffffffffffffffffffffffffffffffffffffffffffff1916827bffffffffffffffffffffffffffffffffffffffffffffffffffffffff1916148061045d57507f5b5e139f000000000000000000000000000000000000000000000000000000007bffffffffffffffffffffffffffffffffffffffffffffffffffffffff1916827bffffffffffffffffffffffffffffffffffffffffffffffffffffffff1916145b8061046d575061046c82610e44565b5b9050919050565b60606000805461048390612663565b80601f01602080910402602001604051908101604052809291908181526020018280546104af90612663565b80156104fc5780601f106104d1576101008083540402835291602001916104fc565b820191906000526020600020905b8154815290600101906020018083116104df57829003601f168201915b5050505050905090565b600061051182610eae565b5061051b82610f36565b9050919050565b610534828261052f610f73565b610f7b565b5050565b600073ffffffffffffffffffffffffffffffffffffffff168273ffffffffffffffffffffffffffffffffffffffff16036105aa5760006040517f64a0ae920000000000000000000000000000000000000000000000000000000081526004016105a19190611e1a565b60405180910390fd5b60006105be83836105b9610f73565b610f8d565b90508373ffffffffffffffffffffffffffffffffffffffff168173ffffffffffffffffffffffffffffffffffffffff1614610634578382826040517f64283d7b00000000000000000000000000000000000000000000000000000000815260040161062b93929190612694565b60405180910390fd5b50505050565b610655838383604051806020016040528060008152506108c0565b505050565b600061066582610eae565b9050919050565b60008073ffffffffffffffffffffffffffffffffffffffff168273ffffffffffffffffffffffffffffffffffffffff16036106df5760006040517f89c62b640000000000000000000000000000000000000000000000000000000081526004016106d69190611e1a565b60405180910390fd5b600360008373ffffffffffffffffffffffffffffffffffffffff1673ffffffffffffffffffffffffffffffffffffffff168152602001908152602001600020549050919050565b600660009054906101000a900473ffffffffffffffffffffffffffffffffffffffff1681565b6000806007600087815260200190815260200160002090508581600001819055508481600101908161077e9190612877565b50838160020190816107909190612877565b50828160030181905550806005014290806001815401808255809150506001900390600052602060002001600090919091909150556107cf33876111a7565b7f0f6798a560793a54c3bcfe86a93cde1e73087d944c0ea20544137d41213968853387604051610800929190612949565b60405180910390a18060000154915050949350505050565b60606001805461082790612663565b80601f016020809104026020016040519081016040528092919081815260200182805461085390612663565b80156108a05780601f10610875576101008083540402835291602001916108a0565b820191906000526020600020905b81548152906001019060200180831161088357829003601f168201915b5050505050905090565b6108bc6108b5610f73565b83836111c5565b5050565b6108cb848484610538565b6108d784848484611334565b50505050565b6108e5611bbf565b600760008381526020019081526020016000206040518060c00160405290816000820154815260200160018201805461091d90612663565b80601f016020809104026020016040519081016040528092919081815260200182805461094990612663565b80156109965780601f1061096b57610100808354040283529160200191610996565b820191906000526020600020905b81548152906001019060200180831161097957829003601f168201915b505050505081526020016002820180546109af90612663565b80601f01602080910402602001604051908101604052809291908181526020018280546109db90612663565b8015610a285780601f106109fd57610100808354040283529160200191610a28565b820191906000526020600020905b815481529060010190602001808311610a0b57829003601f168201915b505050505081526020016003820154815260200160048201805480602002602001604051908101604052809291908181526020016000905b82821015610b8457838290600052602060002090600302016040518060600160405290816000820160009054906101000a900473ffffffffffffffffffffffffffffffffffffffff1673ffffffffffffffffffffffffffffffffffffffff1673ffffffffffffffffffffffffffffffffffffffff168152602001600182018054610ae990612663565b80601f0160208091040260200160405190810160405280929190818152602001828054610b1590612663565b8015610b625780601f10610b3757610100808354040283529160200191610b62565b820191906000526020600020905b815481529060010190602001808311610b4557829003601f168201915b5050505050815260200160028201548152505081526020019060010190610a60565b50505050815260200160058201805480602002602001604051908101604052809291908181526020018280548015610bdb57602002820191906000526020600020905b815481526020019060010190808311610bc7575b5050505050815250509050919050565b6060610bf682610eae565b506000610c016114eb565b90506000815111610c215760405180602001604052806000815250610c4c565b80610c2b84611502565b604051602001610c3c9291906129ae565b6040516020818303038152906040525b915050919050565b6000600560008473ffffffffffffffffffffffffffffffffffffffff1673ffffffffffffffffffffffffffffffffffffffff16815260200190815260200160002060008373ffffffffffffffffffffffffffffffffffffffff1673ffffffffffffffffffffffffffffffffffffffff16815260200190815260200160002060009054906101000a900460ff16905092915050565b3373ffffffffffffffffffffffffffffffffffffffff16610d088361065a565b73ffffffffffffffffffffffffffffffffffffffff1614610d2857600080fd5b60006007600084815260200190815260200160002090508060040160405180606001604052803373ffffffffffffffffffffffffffffffffffffffff16815260200184815260200142815250908060018154018082558091505060019003906000526020600020906003020160009091909190915060008201518160000160006101000a81548173ffffffffffffffffffffffffffffffffffffffff021916908373ffffffffffffffffffffffffffffffffffffffff1602179055506020820151816001019081610df99190612877565b506040820151816002015550507f2ef3fc8a662077a0e040f48a65ffa7573c31f49d3f910d11faaebafb4024c6523383604051610e379291906129d2565b60405180910390a1505050565b60007f01ffc9a7000000000000000000000000000000000000000000000000000000007bffffffffffffffffffffffffffffffffffffffffffffffffffffffff1916827bffffffffffffffffffffffffffffffffffffffffffffffffffffffff1916149050919050565b600080610eba836115d0565b9050600073ffffffffffffffffffffffffffffffffffffffff168173ffffffffffffffffffffffffffffffffffffffff1603610f2d57826040517f7e273289000000000000000000000000000000000000000000000000000000008152600401610f249190611f30565b60405180910390fd5b80915050919050565b60006004600083815260200190815260200160002060009054906101000a900473ffffffffffffffffffffffffffffffffffffffff169050919050565b600033905090565b610f88838383600161160d565b505050565b600080610f99846115d0565b9050600073ffffffffffffffffffffffffffffffffffffffff168373ffffffffffffffffffffffffffffffffffffffff1614610fdb57610fda8184866117d2565b5b600073ffffffffffffffffffffffffffffffffffffffff168173ffffffffffffffffffffffffffffffffffffffff161461106c5761101d60008560008061160d565b6001600360008373ffffffffffffffffffffffffffffffffffffffff1673ffffffffffffffffffffffffffffffffffffffff168152602001908152602001600020600082825403925050819055505b600073ffffffffffffffffffffffffffffffffffffffff168573ffffffffffffffffffffffffffffffffffffffff16146110ef576001600360008773ffffffffffffffffffffffffffffffffffffffff1673ffffffffffffffffffffffffffffffffffffffff168152602001908152602001600020600082825401925050819055505b846002600086815260200190815260200160002060006101000a81548173ffffffffffffffffffffffffffffffffffffffff021916908373ffffffffffffffffffffffffffffffffffffffff160217905550838573ffffffffffffffffffffffffffffffffffffffff168273ffffffffffffffffffffffffffffffffffffffff167fddf252ad1be2c89b69c2b068fc378daa952ba7f163c4a11628f55a4df523b3ef60405160405180910390a4809150509392505050565b6111c1828260405180602001604052806000815250611896565b5050565b600073ffffffffffffffffffffffffffffffffffffffff168273ffffffffffffffffffffffffffffffffffffffff160361123657816040517f5b08ba1800000000000000000000000000000000000000000000000000000000815260040161122d9190611e1a565b60405180910390fd5b80600560008573ffffffffffffffffffffffffffffffffffffffff1673ffffffffffffffffffffffffffffffffffffffff16815260200190815260200160002060008473ffffffffffffffffffffffffffffffffffffffff1673ffffffffffffffffffffffffffffffffffffffff16815260200190815260200160002060006101000a81548160ff0219169083151502179055508173ffffffffffffffffffffffffffffffffffffffff168373ffffffffffffffffffffffffffffffffffffffff167f17307eab39ab6107e8899845ad3d59bd9653f200f220920489ca2b5937696c31836040516113279190611ca9565b60405180910390a3505050565b60008373ffffffffffffffffffffffffffffffffffffffff163b11156114e5578273ffffffffffffffffffffffffffffffffffffffff1663150b7a02611378610f73565b8685856040518563ffffffff1660e01b815260040161139a9493929190612a57565b6020604051808303816000875af19250505080156113d657506040513d601f19601f820116820180604052508101906113d39190612ab8565b60015b61145a573d8060008114611406576040519150601f19603f3d011682016040523d82523d6000602084013e61140b565b606091505b50600081510361145257836040517f64a0ae920000000000000000000000000000000000000000000000000000000081526004016114499190611e1a565b60405180910390fd5b805181602001fd5b63150b7a0260e01b7bffffffffffffffffffffffffffffffffffffffffffffffffffffffff1916817bffffffffffffffffffffffffffffffffffffffffffffffffffffffff1916146114e357836040517f64a0ae920000000000000000000000000000000000000000000000000000000081526004016114da9190611e1a565b60405180910390fd5b505b50505050565b606060405180602001604052806000815250905090565b606060006001611511846118b2565b01905060008167ffffffffffffffff8111156115305761152f611f55565b5b6040519080825280601f01601f1916602001820160405280156115625781602001600182028036833780820191505090505b509050600082602001820190505b6001156115c5578080600190039150507f3031323334353637383961626364656600000000000000000000000000000000600a86061a8153600a85816115b9576115b8612ae5565b5b04945060008503611570575b819350505050919050565b60006002600083815260200190815260200160002060009054906101000a900473ffffffffffffffffffffffffffffffffffffffff169050919050565b80806116465750600073ffffffffffffffffffffffffffffffffffffffff168273ffffffffffffffffffffffffffffffffffffffff1614155b1561177a57600061165684610eae565b9050600073ffffffffffffffffffffffffffffffffffffffff168373ffffffffffffffffffffffffffffffffffffffff16141580156116c157508273ffffffffffffffffffffffffffffffffffffffff168173ffffffffffffffffffffffffffffffffffffffff1614155b80156116d457506116d28184610c54565b155b1561171657826040517fa9fbf51f00000000000000000000000000000000000000000000000000000000815260040161170d9190611e1a565b60405180910390fd5b811561177857838573ffffffffffffffffffffffffffffffffffffffff168273ffffffffffffffffffffffffffffffffffffffff167f8c5be1e5ebec7d5bd14f71427d1e84f3dd0314c0f7b2291e5b200ac8c7c3b92560405160405180910390a45b505b836004600085815260200190815260200160002060006101000a81548173ffffffffffffffffffffffffffffffffffffffff021916908373ffffffffffffffffffffffffffffffffffffffff16021790555050505050565b6117dd838383611a05565b61189157600073ffffffffffffffffffffffffffffffffffffffff168373ffffffffffffffffffffffffffffffffffffffff160361185257806040517f7e2732890000000000000000000000000000000000000000000000000000000081526004016118499190611f30565b60405180910390fd5b81816040517f177e802f000000000000000000000000000000000000000000000000000000008152600401611888929190612949565b60405180910390fd5b505050565b6118a08383611ac6565b6118ad6000848484611334565b505050565b600080600090507a184f03e93ff9f4daa797ed6e38ed64bf6a1f0100000000000000008310611910577a184f03e93ff9f4daa797ed6e38ed64bf6a1f010000000000000000838161190657611905612ae5565b5b0492506040810190505b6d04ee2d6d415b85acef8100000000831061194d576d04ee2d6d415b85acef8100000000838161194357611942612ae5565b5b0492506020810190505b662386f26fc10000831061197c57662386f26fc10000838161197257611971612ae5565b5b0492506010810190505b6305f5e10083106119a5576305f5e100838161199b5761199a612ae5565b5b0492506008810190505b61271083106119ca5761271083816119c0576119bf612ae5565b5b0492506004810190505b606483106119ed57606483816119e3576119e2612ae5565b5b0492506002810190505b600a83106119fc576001810190505b80915050919050565b60008073ffffffffffffffffffffffffffffffffffffffff168373ffffffffffffffffffffffffffffffffffffffff1614158015611abd57508273ffffffffffffffffffffffffffffffffffffffff168473ffffffffffffffffffffffffffffffffffffffff161480611a7e5750611a7d8484610c54565b5b80611abc57508273ffffffffffffffffffffffffffffffffffffffff16611aa483610f36565b73ffffffffffffffffffffffffffffffffffffffff16145b5b90509392505050565b600073ffffffffffffffffffffffffffffffffffffffff168273ffffffffffffffffffffffffffffffffffffffff1603611b385760006040517f64a0ae92000000000000000000000000000000000000000000000000000000008152600401611b2f9190611e1a565b60405180910390fd5b6000611b4683836000610f8d565b9050600073ffffffffffffffffffffffffffffffffffffffff168173ffffffffffffffffffffffffffffffffffffffff1614611bba5760006040517f73c6ac6e000000000000000000000000000000000000000000000000000000008152600401611bb19190611e1a565b60405180910390fd5b505050565b6040518060c001604052806000815260200160608152602001606081526020016000815260200160608152602001606081525090565b6000604051905090565b600080fd5b600080fd5b60007fffffffff0000000000000000000000000000000000000000000000000000000082169050919050565b611c3e81611c09565b8114611c4957600080fd5b50565b600081359050611c5b81611c35565b92915050565b600060208284031215611c7757611c76611bff565b5b6000611c8584828501611c4c565b91505092915050565b60008115159050919050565b611ca381611c8e565b82525050565b6000602082019050611cbe6000830184611c9a565b92915050565b600081519050919050565b600082825260208201905092915050565b60005b83811015611cfe578082015181840152602081019050611ce3565b60008484015250505050565b6000601f19601f8301169050919050565b6000611d2682611cc4565b611d308185611ccf565b9350611d40818560208601611ce0565b611d4981611d0a565b840191505092915050565b60006020820190508181036000830152611d6e8184611d1b565b905092915050565b6000819050919050565b611d8981611d76565b8114611d9457600080fd5b50565b600081359050611da681611d80565b92915050565b600060208284031215611dc257611dc1611bff565b5b6000611dd084828501611d97565b91505092915050565b600073ffffffffffffffffffffffffffffffffffffffff82169050919050565b6000611e0482611dd9565b9050919050565b611e1481611df9565b82525050565b6000602082019050611e2f6000830184611e0b565b92915050565b611e3e81611df9565b8114611e4957600080fd5b50565b600081359050611e5b81611e35565b92915050565b60008060408385031215611e7857611e77611bff565b5b6000611e8685828601611e4c565b9250506020611e9785828601611d97565b9150509250929050565b600080600060608486031215611eba57611eb9611bff565b5b6000611ec886828701611e4c565b9350506020611ed986828701611e4c565b9250506040611eea86828701611d97565b9150509250925092565b600060208284031215611f0a57611f09611bff565b5b6000611f1884828501611e4c565b91505092915050565b611f2a81611d76565b82525050565b6000602082019050611f456000830184611f21565b92915050565b600080fd5b600080fd5b7f4e487b7100000000000000000000000000000000000000000000000000000000600052604160045260246000fd5b611f8d82611d0a565b810181811067ffffffffffffffff82111715611fac57611fab611f55565b5b80604052505050565b6000611fbf611bf5565b9050611fcb8282611f84565b919050565b600067ffffffffffffffff821115611feb57611fea611f55565b5b611ff482611d0a565b9050602081019050919050565b82818337600083830152505050565b600061202361201e84611fd0565b611fb5565b90508281526020810184848401111561203f5761203e611f50565b5b61204a848285612001565b509392505050565b600082601f83011261206757612066611f4b565b5b8135612077848260208601612010565b91505092915050565b6000806000806080858703121561209a57612099611bff565b5b60006120a887828801611d97565b945050602085013567ffffffffffffffff8111156120c9576120c8611c04565b5b6120d587828801612052565b935050604085013567ffffffffffffffff8111156120f6576120f5611c04565b5b61210287828801612052565b925050606061211387828801611d97565b91505092959194509250565b61212881611c8e565b811461213357600080fd5b50565b6000813590506121458161211f565b92915050565b6000806040838503121561216257612161611bff565b5b600061217085828601611e4c565b925050602061218185828601612136565b9150509250929050565b600067ffffffffffffffff8211156121a6576121a5611f55565b5b6121af82611d0a565b9050602081019050919050565b60006121cf6121ca8461218b565b611fb5565b9050828152602081018484840111156121eb576121ea611f50565b5b6121f6848285612001565b509392505050565b600082601f83011261221357612212611f4b565b5b81356122238482602086016121bc565b91505092915050565b6000806000806080858703121561224657612245611bff565b5b600061225487828801611e4c565b945050602061226587828801611e4c565b935050604061227687828801611d97565b925050606085013567ffffffffffffffff81111561229757612296611c04565b5b6122a3878288016121fe565b91505092959194509250565b6122b881611d76565b82525050565b600082825260208201905092915050565b60006122da82611cc4565b6122e481856122be565b93506122f4818560208601611ce0565b6122fd81611d0a565b840191505092915050565b600081519050919050565b600082825260208201905092915050565b6000819050602082019050919050565b61233d81611df9565b82525050565b600060608301600083015161235b6000860182612334565b506020830151848203602086015261237382826122cf565b915050604083015161238860408601826122af565b508091505092915050565b600061239f8383612343565b905092915050565b6000602082019050919050565b60006123bf82612308565b6123c98185612313565b9350836020820285016123db85612324565b8060005b8581101561241757848403895281516123f88582612393565b9450612403836123a7565b925060208a019950506001810190506123df565b50829750879550505050505092915050565b600081519050919050565b600082825260208201905092915050565b6000819050602082019050919050565b600061246183836122af565b60208301905092915050565b6000602082019050919050565b600061248582612429565b61248f8185612434565b935061249a83612445565b8060005b838110156124cb5781516124b28882612455565b97506124bd8361246d565b92505060018101905061249e565b5085935050505092915050565b600060c0830160008301516124f060008601826122af565b506020830151848203602086015261250882826122cf565b9150506040830151848203604086015261252282826122cf565b915050606083015161253760608601826122af565b506080830151848203608086015261254f82826123b4565b91505060a083015184820360a0860152612569828261247a565b9150508091505092915050565b6000602082019050818103600083015261259081846124d8565b905092915050565b600080604083850312156125af576125ae611bff565b5b60006125bd85828601611e4c565b92505060206125ce85828601611e4c565b9150509250929050565b600080604083850312156125ef576125ee611bff565b5b60006125fd85828601611d97565b925050602083013567ffffffffffffffff81111561261e5761261d611c04565b5b61262a85828601612052565b9150509250929050565b7f4e487b7100000000000000000000000000000000000000000000000000000000600052602260045260246000fd5b6000600282049050600182168061267b57607f821691505b60208210810361268e5761268d612634565b5b50919050565b60006060820190506126a96000830186611e0b565b6126b66020830185611f21565b6126c36040830184611e0b565b949350505050565b60008190508160005260206000209050919050565b60006020601f8301049050919050565b600082821b905092915050565b60006008830261272d7fffffffffffffffffffffffffffffffffffffffffffffffffffffffffffffffff826126f0565b61273786836126f0565b95508019841693508086168417925050509392505050565b6000819050919050565b600061277461276f61276a84611d76565b61274f565b611d76565b9050919050565b6000819050919050565b61278e83612759565b6127a261279a8261277b565b8484546126fd565b825550505050565b600090565b6127b76127aa565b6127c2818484612785565b505050565b5b818110156127e6576127db6000826127af565b6001810190506127c8565b5050565b601f82111561282b576127fc816126cb565b612805846126e0565b81016020851015612814578190505b612828612820856126e0565b8301826127c7565b50505b505050565b600082821c905092915050565b600061284e60001984600802612830565b1980831691505092915050565b6000612867838361283d565b9150826002028217905092915050565b61288082611cc4565b67ffffffffffffffff81111561289957612898611f55565b5b6128a38254612663565b6128ae8282856127ea565b600060209050601f8311600181146128e157600084156128cf578287015190505b6128d9858261285b565b865550612941565b601f1984166128ef866126cb565b60005b82811015612917578489015182556001820191506020850194506020810190506128f2565b868310156129345784890151612930601f89168261283d565b8355505b6001600288020188555050505b505050505050565b600060408201905061295e6000830185611e0b565b61296b6020830184611f21565b9392505050565b600081905092915050565b600061298882611cc4565b6129928185612972565b93506129a2818560208601611ce0565b80840191505092915050565b60006129ba828561297d565b91506129c6828461297d565b91508190509392505050565b60006040820190506129e76000830185611e0b565b81810360208301526129f98184611d1b565b90509392505050565b600081519050919050565b600082825260208201905092915050565b6000612a2982612a02565b612a338185612a0d565b9350612a43818560208601611ce0565b612a4c81611d0a565b840191505092915050565b6000608082019050612a6c6000830187611e0b565b612a796020830186611e0b565b612a866040830185611f21565b8181036060830152612a988184612a1e565b905095945050505050565b600081519050612ab281611c35565b92915050565b600060208284031215612ace57612acd611bff565b5b6000612adc84828501612aa3565b91505092915050565b7f4e487b7100000000000000000000000000000000000000000000000000000000600052601260045260246000fdfea2646970667358221220a8b6acf959c2d286aa9f521775218a698ec8098a903516ed0783650bee8517c364736f6c63430008180033",
  "linkReferences": {},
  "deployedLinkReferences": {}
}